{
  "contractName": "SolnSquareVerifier",
  "abi": [
    {
      "inputs": [
        {
          "internalType": "address",
          "name": "verifierAddr",
          "type": "address"
        }
      ],
      "payable": false,
      "stateMutability": "nonpayable",
      "type": "constructor"
    },
    {
      "anonymous": false,
      "inputs": [
        {
          "indexed": true,
          "internalType": "address",
          "name": "owner",
          "type": "address"
        },
        {
          "indexed": true,
          "internalType": "address",
          "name": "approved",
          "type": "address"
        },
        {
          "indexed": true,
          "internalType": "uint256",
          "name": "tokenId",
          "type": "uint256"
        }
      ],
      "name": "Approval",
      "type": "event"
    },
    {
      "anonymous": false,
      "inputs": [
        {
          "indexed": true,
          "internalType": "address",
          "name": "owner",
          "type": "address"
        },
        {
          "indexed": true,
          "internalType": "address",
          "name": "operator",
          "type": "address"
        },
        {
          "indexed": false,
          "internalType": "bool",
          "name": "approved",
          "type": "bool"
        }
      ],
      "name": "ApprovalForAll",
      "type": "event"
    },
    {
      "anonymous": false,
      "inputs": [
        {
          "indexed": false,
          "internalType": "address",
          "name": "sender",
          "type": "address"
        }
      ],
      "name": "Paused",
      "type": "event"
    },
    {
      "anonymous": false,
      "inputs": [
        {
          "indexed": false,
          "internalType": "bytes32",
          "name": "tokenId",
          "type": "bytes32"
        },
        {
          "indexed": false,
          "internalType": "address",
          "name": "from",
          "type": "address"
        }
      ],
      "name": "SolutionAdded",
      "type": "event"
    },
    {
      "anonymous": false,
      "inputs": [
        {
          "indexed": true,
          "internalType": "address",
          "name": "from",
          "type": "address"
        },
        {
          "indexed": true,
          "internalType": "address",
          "name": "to",
          "type": "address"
        },
        {
          "indexed": true,
          "internalType": "uint256",
          "name": "tokenId",
          "type": "uint256"
        }
      ],
      "name": "Transfer",
      "type": "event"
    },
    {
      "anonymous": false,
      "inputs": [
        {
          "indexed": false,
          "internalType": "address",
          "name": "sender",
          "type": "address"
        }
      ],
      "name": "UnPaused",
      "type": "event"
    },
    {
      "anonymous": false,
      "inputs": [
        {
          "indexed": false,
          "internalType": "address",
          "name": "newOwner",
          "type": "address"
        }
      ],
      "name": "transferOfOwnership",
      "type": "event"
    },
    {
      "constant": false,
      "inputs": [
        {
          "internalType": "bytes32",
          "name": "_myid",
          "type": "bytes32"
        },
        {
          "internalType": "string",
          "name": "_result",
          "type": "string"
        }
      ],
      "name": "__callback",
      "outputs": [],
      "payable": false,
      "stateMutability": "nonpayable",
      "type": "function"
    },
    {
      "constant": false,
      "inputs": [
        {
          "internalType": "bytes32",
          "name": "_myid",
          "type": "bytes32"
        },
        {
          "internalType": "string",
          "name": "_result",
          "type": "string"
        },
        {
          "internalType": "bytes",
          "name": "_proof",
          "type": "bytes"
        }
      ],
      "name": "__callback",
      "outputs": [],
      "payable": false,
      "stateMutability": "nonpayable",
      "type": "function"
    },
    {
      "constant": false,
      "inputs": [
        {
          "internalType": "address",
          "name": "to",
          "type": "address"
        },
        {
          "internalType": "uint256",
          "name": "tokenId",
          "type": "uint256"
        }
      ],
      "name": "approve",
      "outputs": [],
      "payable": false,
      "stateMutability": "nonpayable",
      "type": "function"
    },
    {
      "constant": true,
      "inputs": [
        {
          "internalType": "address",
          "name": "owner",
          "type": "address"
        }
      ],
      "name": "balanceOf",
      "outputs": [
        {
          "internalType": "uint256",
          "name": "",
          "type": "uint256"
        }
      ],
      "payable": false,
      "stateMutability": "view",
      "type": "function"
    },
    {
      "constant": true,
      "inputs": [
        {
          "internalType": "uint256",
          "name": "tokenId",
          "type": "uint256"
        }
      ],
      "name": "getApproved",
      "outputs": [
        {
          "internalType": "address",
          "name": "",
          "type": "address"
        }
      ],
      "payable": false,
      "stateMutability": "view",
      "type": "function"
    },
    {
      "constant": true,
      "inputs": [],
      "name": "getBaseTokenURI",
      "outputs": [
        {
          "internalType": "string",
          "name": "",
          "type": "string"
        }
      ],
      "payable": false,
      "stateMutability": "view",
      "type": "function"
    },
    {
      "constant": true,
      "inputs": [],
      "name": "getName",
      "outputs": [
        {
          "internalType": "string",
          "name": "",
          "type": "string"
        }
      ],
      "payable": false,
      "stateMutability": "view",
      "type": "function"
    },
    {
      "constant": true,
      "inputs": [],
      "name": "getOwner",
      "outputs": [
        {
          "internalType": "address",
          "name": "",
          "type": "address"
        }
      ],
      "payable": false,
      "stateMutability": "view",
      "type": "function"
    },
    {
      "constant": true,
      "inputs": [],
      "name": "getSymbol",
      "outputs": [
        {
          "internalType": "string",
          "name": "",
          "type": "string"
        }
      ],
      "payable": false,
      "stateMutability": "view",
      "type": "function"
    },
    {
      "constant": true,
      "inputs": [
        {
          "internalType": "address",
          "name": "owner",
          "type": "address"
        },
        {
          "internalType": "address",
          "name": "operator",
          "type": "address"
        }
      ],
      "name": "isApprovedForAll",
      "outputs": [
        {
          "internalType": "bool",
          "name": "",
          "type": "bool"
        }
      ],
      "payable": false,
      "stateMutability": "view",
      "type": "function"
    },
    {
      "constant": false,
      "inputs": [
        {
          "internalType": "address",
          "name": "to",
          "type": "address"
        },
        {
          "internalType": "uint256",
          "name": "tokenId",
          "type": "uint256"
        }
      ],
      "name": "mint",
      "outputs": [
        {
          "internalType": "bool",
          "name": "",
          "type": "bool"
        }
      ],
      "payable": false,
      "stateMutability": "nonpayable",
      "type": "function"
    },
    {
      "constant": true,
      "inputs": [
        {
          "internalType": "uint256",
          "name": "tokenId",
          "type": "uint256"
        }
      ],
      "name": "ownerOf",
      "outputs": [
        {
          "internalType": "address",
          "name": "",
          "type": "address"
        }
      ],
      "payable": false,
      "stateMutability": "view",
      "type": "function"
    },
    {
      "constant": false,
      "inputs": [
        {
          "internalType": "address",
          "name": "from",
          "type": "address"
        },
        {
          "internalType": "address",
          "name": "to",
          "type": "address"
        },
        {
          "internalType": "uint256",
          "name": "tokenId",
          "type": "uint256"
        }
      ],
      "name": "pause",
      "outputs": [],
      "payable": false,
      "stateMutability": "nonpayable",
      "type": "function"
    },
    {
      "constant": false,
      "inputs": [
        {
          "internalType": "address",
          "name": "from",
          "type": "address"
        },
        {
          "internalType": "address",
          "name": "to",
          "type": "address"
        },
        {
          "internalType": "uint256",
          "name": "tokenId",
          "type": "uint256"
        },
        {
          "internalType": "bytes",
          "name": "_data",
          "type": "bytes"
        }
      ],
      "name": "safeTransferFrom",
      "outputs": [],
      "payable": false,
      "stateMutability": "nonpayable",
      "type": "function"
    },
    {
      "constant": false,
      "inputs": [
        {
          "internalType": "address",
          "name": "from",
          "type": "address"
        },
        {
          "internalType": "address",
          "name": "to",
          "type": "address"
        },
        {
          "internalType": "uint256",
          "name": "tokenId",
          "type": "uint256"
        },
        {
          "internalType": "bytes",
          "name": "_data",
          "type": "bytes"
        }
      ],
      "name": "safeTransferFrom",
      "outputs": [],
      "payable": false,
      "stateMutability": "nonpayable",
      "type": "function"
    },
    {
      "constant": false,
      "inputs": [
        {
          "internalType": "address",
          "name": "to",
          "type": "address"
        },
        {
          "internalType": "bool",
          "name": "approved",
          "type": "bool"
        }
      ],
      "name": "setApprovalForAll",
      "outputs": [
        {
          "internalType": "bool",
          "name": "",
          "type": "bool"
        }
      ],
      "payable": false,
      "stateMutability": "nonpayable",
      "type": "function"
    },
    {
      "constant": true,
      "inputs": [
        {
          "internalType": "bytes4",
          "name": "interfaceId",
          "type": "bytes4"
        }
      ],
      "name": "supportsInterface",
      "outputs": [
        {
          "internalType": "bool",
          "name": "",
          "type": "bool"
        }
      ],
      "payable": false,
      "stateMutability": "view",
      "type": "function"
    },
    {
      "constant": true,
      "inputs": [
        {
          "internalType": "uint256",
          "name": "index",
          "type": "uint256"
        },
        {
          "internalType": "uint256",
          "name": "index",
          "type": "uint256"
        }
      ],
      "name": "tokenByIndex",
      "outputs": [
        {
          "internalType": "uint256",
          "name": "",
          "type": "uint256"
        }
      ],
      "payable": false,
      "stateMutability": "view",
      "type": "function"
    },
    {
      "constant": true,
      "inputs": [
        {
          "internalType": "address",
          "name": "owner",
          "type": "address"
        },
        {
          "internalType": "uint256",
          "name": "index",
          "type": "uint256"
        }
      ],
      "name": "tokenOfOwnerByIndex",
      "outputs": [
        {
          "internalType": "uint256",
          "name": "",
          "type": "uint256"
        }
      ],
      "payable": false,
      "stateMutability": "view",
      "type": "function"
    },
    {
      "constant": true,
      "inputs": [
        {
          "internalType": "uint256",
          "name": "tokenId",
          "type": "uint256"
        }
      ],
      "name": "tokenURI",
      "outputs": [
        {
          "internalType": "string",
          "name": "",
          "type": "string"
        }
      ],
      "payable": false,
      "stateMutability": "view",
      "type": "function"
    },
    {
      "constant": true,
      "inputs": [
        {
          "internalType": "address",
          "name": "from",
          "type": "address"
        },
        {
          "internalType": "address",
          "name": "to",
          "type": "address"
        },
        {
          "internalType": "uint256",
          "name": "tokenId",
          "type": "uint256"
        }
      ],
      "name": "totalSupply",
      "outputs": [
        {
          "internalType": "uint256",
          "name": "",
          "type": "uint256"
        }
      ],
      "payable": false,
      "stateMutability": "view",
      "type": "function"
    },
    {
      "constant": false,
      "inputs": [
        {
          "internalType": "address",
          "name": "from",
          "type": "address"
        },
        {
          "internalType": "address",
          "name": "to",
          "type": "address"
        },
        {
          "internalType": "uint256",
          "name": "tokenId",
          "type": "uint256"
        }
      ],
      "name": "transferFrom",
      "outputs": [],
      "payable": false,
      "stateMutability": "nonpayable",
      "type": "function"
    },
    {
      "constant": false,
      "inputs": [
        {
          "internalType": "address",
          "name": "newOwner",
          "type": "address"
        }
      ],
      "name": "transferOwnership",
      "outputs": [],
      "payable": false,
      "stateMutability": "nonpayable",
      "type": "function"
    },
    {
      "constant": false,
      "inputs": [
        {
          "internalType": "uint256[2]",
          "name": "a",
          "type": "uint256[2]"
        },
        {
          "internalType": "uint256[2][2]",
          "name": "b",
          "type": "uint256[2][2]"
        },
        {
          "internalType": "uint256[2]",
          "name": "c",
          "type": "uint256[2]"
        },
        {
          "internalType": "uint256[2]",
          "name": "input",
          "type": "uint256[2]"
        },
        {
          "internalType": "address",
          "name": "source",
          "type": "address"
        },
        {
          "internalType": "uint256",
          "name": "tokenId",
          "type": "uint256"
        }
      ],
      "name": "unpause",
      "outputs": [],
      "payable": false,
      "stateMutability": "nonpayable",
      "type": "function"
    },
    {
      "constant": false,
      "inputs": [
        {
          "internalType": "address",
          "name": "to",
          "type": "address"
        },
        {
          "internalType": "uint256",
          "name": "tokenId",
          "type": "uint256"
        },
        {
          "components": [
            {
              "components": [
                {
                  "internalType": "uint256",
                  "name": "X",
                  "type": "uint256"
                },
                {
                  "internalType": "uint256",
                  "name": "Y",
                  "type": "uint256"
                }
              ],
              "internalType": "struct Pairing.G1Point",
              "name": "a",
              "type": "tuple"
            },
            {
              "components": [
                {
                  "internalType": "uint256[2]",
                  "name": "X",
                  "type": "uint256[2]"
                },
                {
                  "internalType": "uint256[2]",
                  "name": "Y",
                  "type": "uint256[2]"
                }
              ],
              "internalType": "struct Pairing.G2Point",
              "name": "b",
              "type": "tuple"
            },
            {
              "components": [
                {
                  "internalType": "uint256",
                  "name": "X",
                  "type": "uint256"
                },
                {
                  "internalType": "uint256",
                  "name": "Y",
                  "type": "uint256"
                }
              ],
              "internalType": "struct Pairing.G1Point",
              "name": "c",
              "type": "tuple"
            }
          ],
          "internalType": "struct Verifier.Proof",
          "name": "proof",
          "type": "tuple"
        },
        {
          "internalType": "uint256[2]",
          "name": "input",
          "type": "uint256[2]"
        }
      ],
      "name": "NFTmint",
      "outputs": [
        {
          "internalType": "bool",
          "name": "",
          "type": "bool"
        }
      ],
      "payable": false,
      "stateMutability": "nonpayable",
      "type": "function"
    }
  ],
  "bytecode": "0x60806040523480156200001157600080fd5b5060405162003f5538038062003f558339818101604052620000379190810190620003ac565b6040518060400160405280600d81526020017f50726f70657274795469746c65000000000000000000000000000000000000008152506040518060400160405280600381526020017f50595400000000000000000000000000000000000000000000000000000000008152506040518060600160405280603f815260200162003f16603f9139336000806101000a81548173ffffffffffffffffffffffffffffffffffffffff021916908373ffffffffffffffffffffffffffffffffffffffff1602179055507fd240383a506bd5c84af805c48eea019b7c7d6d0e6f8e1ce2de461b58c9334327336040516200012e9190620003e9565b60405180910390a160008060146101000a81548160ff021916908315150217905550620001686301ffc9a760e01b6200024660201b60201c565b620001806380ac58cd60e01b6200024660201b60201c565b6200019863780e9d6360e01b6200024660201b60201c565b8260119080519060200190620001b0929190620002e6565b508160109080519060200190620001c9929190620002e6565b5080600f9080519060200190620001e2929190620002e6565b50620001fb635b5e139f60e01b6200024660201b60201c565b50505080601360006101000a81548173ffffffffffffffffffffffffffffffffffffffff021916908373ffffffffffffffffffffffffffffffffffffffff1602179055505062000490565b63ffffffff60e01b817bffffffffffffffffffffffffffffffffffffffffffffffffffffffff191614156200027a57600080fd5b6001806000837bffffffffffffffffffffffffffffffffffffffffffffffffffffffff19167bffffffffffffffffffffffffffffffffffffffffffffffffffffffff1916815260200190815260200160002060006101000a81548160ff02191690831515021790555050565b828054600181600116156101000203166002900490600052602060002090601f016020900481019282601f106200032957805160ff19168380011785556200035a565b828001600101855582156200035a579182015b82811115620003595782518255916020019190600101906200033c565b5b5090506200036991906200036d565b5090565b6200039291905b808211156200038e57600081600090555060010162000374565b5090565b90565b600081519050620003a68162000476565b92915050565b600060208284031215620003bf57600080fd5b6000620003cf8482850162000395565b91505092915050565b620003e3816200043a565b82525050565b6000602082019050620004006000830184620003d8565b92915050565b600062000413826200041a565b9050919050565b600073ffffffffffffffffffffffffffffffffffffffff82169050919050565b600062000447826200044e565b9050919050565b60006200045b8262000462565b9050919050565b60006200046f826200041a565b9050919050565b620004818162000406565b81146200048d57600080fd5b50565b613a7680620004a06000396000f3fe608060405234801561001057600080fd5b50600436106101735760003560e01c806342842e0e116100de578063a22cb46511610097578063c87b56dd11610071578063c87b56dd14610436578063e985e9c514610466578063f2fde38b14610496578063fea3d7bf146104b257610173565b8063a22cb465146103e0578063b88d4fde146103fc578063bdc32be01461041857610173565b806342842e0e1461030c5780634f6ccce7146103285780636352211e1461035857806370a08231146103885780638456cb59146103b8578063893d20e8146103c257610173565b806323b872dd1161013057806323b872dd1461024e57806327dc297e1461026a5780632f745c591461028657806338bbfa50146102b65780633f4ba83a146102d257806340c10f19146102dc57610173565b806301ffc9a714610178578063081812fc146101a8578063095ea7b3146101d857806315070401146101f457806317d7de7c1461021257806318160ddd14610230575b600080fd5b610192600480360361018d9190810190612d0e565b6104ce565b60405161019f919061351d565b60405180910390f35b6101c260048036036101bd9190810190612d60565b610536565b6040516101cf919061349b565b60405180910390f35b6101f260048036036101ed9190810190612b71565b610573565b005b6101fc6107b2565b6040516102099190613561565b60405180910390f35b61021a610854565b6040516102279190613561565b60405180910390f35b6102386108f6565b604051610245919061372e565b60405180910390f35b61026860048036036102639190810190612a6b565b610903565b005b610284600480360361027f9190810190612c3b565b610926565b005b6102a0600480360361029b9190810190612b71565b610969565b6040516102ad919061372e565b60405180910390f35b6102d060048036036102cb9190810190612c8f565b6109dc565b005b6102da6109e1565b005b6102f660048036036102f19190810190612b71565b610b19565b604051610303919061351d565b60405180910390f35b61032660048036036103219190810190612a6b565b610bc7565b005b610342600480360361033d9190810190612d60565b610be7565b60405161034f919061372e565b60405180910390f35b610372600480360361036d9190810190612d60565b610c1b565b60405161037f919061349b565b60405180910390f35b6103a2600480360361039d9190810190612a06565b610c58565b6040516103af919061372e565b60405180910390f35b6103c0610ca8565b005b6103ca610de1565b6040516103d7919061349b565b60405180910390f35b6103fa60048036036103f59190810190612b35565b610e0a565b005b61041660048036036104119190810190612aba565b610f40565b005b610420610f66565b60405161042d9190613561565b60405180910390f35b610450600480360361044b9190810190612d60565b611008565b60405161045d9190613561565b60405180910390f35b610480600480360361047b9190810190612a2f565b6110cf565b60405161048d919061351d565b60405180910390f35b6104b060048036036104ab9190810190612a06565b611163565b005b6104cc60048036036104c79190810190612bad565b6112a5565b005b600060016000837bffffffffffffffffffffffffffffffffffffffffffffffffffffffff19167bffffffffffffffffffffffffffffffffffffffffffffffffffffffff1916815260200190815260200160002060009054906101000a900460ff169050919050565b60006003600083815260200190815260200160002060009054906101000a900473ffffffffffffffffffffffffffffffffffffffff169050919050565b8173ffffffffffffffffffffffffffffffffffffffff166002600083815260200190815260200160002060009054906101000a900473ffffffffffffffffffffffffffffffffffffffff1673ffffffffffffffffffffffffffffffffffffffff161415610615576040517f08c379a000000000000000000000000000000000000000000000000000000000815260040161060c90613603565b60405180910390fd5b61061d610de1565b73ffffffffffffffffffffffffffffffffffffffff163373ffffffffffffffffffffffffffffffffffffffff16148061068f575061068e6002600083815260200190815260200160002060009054906101000a900473ffffffffffffffffffffffffffffffffffffffff16336110cf565b5b6106ce576040517f08c379a00000000000000000000000000000000000000000000000000000000081526004016106c590613583565b60405180910390fd5b816003600083815260200190815260200160002060006101000a81548173ffffffffffffffffffffffffffffffffffffffff021916908373ffffffffffffffffffffffffffffffffffffffff160217905550808273ffffffffffffffffffffffffffffffffffffffff166002600084815260200190815260200160002060009054906101000a900473ffffffffffffffffffffffffffffffffffffffff1673ffffffffffffffffffffffffffffffffffffffff167f8c5be1e5ebec7d5bd14f71427d1e84f3dd0314c0f7b2291e5b200ac8c7c3b92560405160405180910390a45050565b606060108054600181600116156101000203166002900480601f01602080910402602001604051908101604052809291908181526020018280546001816001161561010002031660029004801561084a5780601f1061081f5761010080835404028352916020019161084a565b820191906000526020600020905b81548152906001019060200180831161082d57829003601f168201915b5050505050905090565b606060118054600181600116156101000203166002900480601f0160208091040260200160405190810160405280929190818152602001828054600181600116156101000203166002900480156108ec5780601f106108c1576101008083540402835291602001916108ec565b820191906000526020600020905b8154815290600101906020018083116108cf57829003601f168201915b5050505050905090565b6000600880549050905090565b61090d33826112c0565b61091657600080fd5b610921838383611355565b505050565b610965828260006040519080825280601f01601f19166020018201604052801561095f5781602001600182028038833980820191505090505b506109dc565b5050565b600061097483610c58565b821061097f57600080fd5b600660008473ffffffffffffffffffffffffffffffffffffffff1673ffffffffffffffffffffffffffffffffffffffff16815260200190815260200160002082815481106109c957fe5b9060005260206000200154905092915050565b505050565b6000809054906101000a900473ffffffffffffffffffffffffffffffffffffffff1673ffffffffffffffffffffffffffffffffffffffff163373ffffffffffffffffffffffffffffffffffffffff1614610a70576040517f08c379a0000000000000000000000000000000000000000000000000000000008152600401610a67906135a3565b60405180910390fd5b60011515600060149054906101000a900460ff16151514610ac6576040517f08c379a0000000000000000000000000000000000000000000000000000000008152600401610abd906136a3565b60405180910390fd5b60008060146101000a81548160ff0219169083151502179055507fff2b959f2bcdb44c7ecb4b16dae055431019d7350607125cfc2b74a06632c90e33604051610b0f91906134b6565b60405180910390a1565b60008060009054906101000a900473ffffffffffffffffffffffffffffffffffffffff1673ffffffffffffffffffffffffffffffffffffffff163373ffffffffffffffffffffffffffffffffffffffff1614610baa576040517f08c379a0000000000000000000000000000000000000000000000000000000008152600401610ba1906135a3565b60405180910390fd5b610bb48383611379565b610bbd8261139a565b6001905092915050565b610be283838360405180602001604052806000815250610f40565b505050565b6000610bf16108f6565b8210610bfc57600080fd5b60088281548110610c0957fe5b90600052602060002001549050919050565b60006002600083815260200190815260200160002060009054906101000a900473ffffffffffffffffffffffffffffffffffffffff169050919050565b6000610ca1600460008473ffffffffffffffffffffffffffffffffffffffff1673ffffffffffffffffffffffffffffffffffffffff1681526020019081526020016000206114b8565b9050919050565b6000809054906101000a900473ffffffffffffffffffffffffffffffffffffffff1673ffffffffffffffffffffffffffffffffffffffff163373ffffffffffffffffffffffffffffffffffffffff1614610d37576040517f08c379a0000000000000000000000000000000000000000000000000000000008152600401610d2e906135a3565b60405180910390fd5b60001515600060149054906101000a900460ff16151514610d8d576040517f08c379a0000000000000000000000000000000000000000000000000000000008152600401610d8490613663565b60405180910390fd5b6001600060146101000a81548160ff0219169083151502179055507f62e78cea01bee320cd4e420270b5ea74000d11b0c9f74754ebdbfc544b05a25833604051610dd791906134b6565b60405180910390a1565b60008060009054906101000a900473ffffffffffffffffffffffffffffffffffffffff16905090565b3373ffffffffffffffffffffffffffffffffffffffff168273ffffffffffffffffffffffffffffffffffffffff161415610e4357600080fd5b80600560003373ffffffffffffffffffffffffffffffffffffffff1673ffffffffffffffffffffffffffffffffffffffff16815260200190815260200160002060008473ffffffffffffffffffffffffffffffffffffffff1673ffffffffffffffffffffffffffffffffffffffff16815260200190815260200160002060006101000a81548160ff0219169083151502179055508173ffffffffffffffffffffffffffffffffffffffff163373ffffffffffffffffffffffffffffffffffffffff167f17307eab39ab6107e8899845ad3d59bd9653f200f220920489ca2b5937696c3183604051610f34919061351d565b60405180910390a35050565b610f4b848484610903565b610f57848484846114c6565b610f6057600080fd5b50505050565b6060600f8054600181600116156101000203166002900480601f016020809104026020016040519081016040528092919081815260200182805460018160011615610100020316600290048015610ffe5780601f10610fd357610100808354040283529160200191610ffe565b820191906000526020600020905b815481529060010190602001808311610fe157829003601f168201915b5050505050905090565b6060611013826115dd565b61101c57600080fd5b601260008381526020019081526020016000208054600181600116156101000203166002900480601f0160208091040260200160405190810160405280929190818152602001828054600181600116156101000203166002900480156110c35780601f10611098576101008083540402835291602001916110c3565b820191906000526020600020905b8154815290600101906020018083116110a657829003601f168201915b50505050509050919050565b6000600560008473ffffffffffffffffffffffffffffffffffffffff1673ffffffffffffffffffffffffffffffffffffffff16815260200190815260200160002060008373ffffffffffffffffffffffffffffffffffffffff1673ffffffffffffffffffffffffffffffffffffffff16815260200190815260200160002060009054906101000a900460ff16905092915050565b6000809054906101000a900473ffffffffffffffffffffffffffffffffffffffff1673ffffffffffffffffffffffffffffffffffffffff163373ffffffffffffffffffffffffffffffffffffffff16146111f2576040517f08c379a00000000000000000000000000000000000000000000000000000000081526004016111e9906135a3565b60405180910390fd5b600073ffffffffffffffffffffffffffffffffffffffff168173ffffffffffffffffffffffffffffffffffffffff161415611262576040517f08c379a0000000000000000000000000000000000000000000000000000000008152600401611259906135e3565b60405180910390fd5b806000806101000a81548173ffffffffffffffffffffffffffffffffffffffff021916908373ffffffffffffffffffffffffffffffffffffffff16021790555050565b6112af828261164f565b6112b98484610b19565b5050505050565b6000806112cc83610c1b565b90508073ffffffffffffffffffffffffffffffffffffffff168473ffffffffffffffffffffffffffffffffffffffff16148061133b57508373ffffffffffffffffffffffffffffffffffffffff1661132384610536565b73ffffffffffffffffffffffffffffffffffffffff16145b8061134c575061134b81856110cf565b5b91505092915050565b611360838383611906565b61136a8382611b35565b6113748282611cd3565b505050565b6113838282611d9a565b61138d8282611cd3565b61139681611f13565b5050565b6113a3816115dd565b6113e2576040517f08c379a00000000000000000000000000000000000000000000000000000000081526004016113d9906135c3565b60405180910390fd5b61148e600f8054600181600116156101000203166002900480601f01602080910402602001604051908101604052809291908181526020018280546001816001161561010002031660029004801561147b5780601f106114505761010080835404028352916020019161147b565b820191906000526020600020905b81548152906001019060200180831161145e57829003601f168201915b505050505061148983611f5f565b61208c565b6012600083815260200190815260200160002090805190602001906114b49291906125e6565b5050565b600081600001549050919050565b60006114e78473ffffffffffffffffffffffffffffffffffffffff166120d0565b6114f457600190506115d5565b60008473ffffffffffffffffffffffffffffffffffffffff1663150b7a02338887876040518563ffffffff1660e01b815260040161153594939291906134d1565b602060405180830381600087803b15801561154f57600080fd5b505af1158015611563573d6000803e3d6000fd5b505050506040513d601f19601f820116820180604052506115879190810190612d37565b905063150b7a0260e01b7bffffffffffffffffffffffffffffffffffffffffffffffffffffffff1916817bffffffffffffffffffffffffffffffffffffffffffffffffffffffff1916149150505b949350505050565b6000806002600084815260200190815260200160002060009054906101000a900473ffffffffffffffffffffffffffffffffffffffff169050600073ffffffffffffffffffffffffffffffffffffffff168173ffffffffffffffffffffffffffffffffffffffff161415915050919050565b600061165b838361211b565b90506000801b6015600083815260200190815260200160002060000154146116b8576040517f08c379a00000000000000000000000000000000000000000000000000000000081526004016116af906136c3565b60405180910390fd5b601360009054906101000a900473ffffffffffffffffffffffffffffffffffffffff1673ffffffffffffffffffffffffffffffffffffffff166343cd76fc84846040518363ffffffff1660e01b8152600401611715929190613703565b60206040518083038186803b15801561172d57600080fd5b505afa158015611741573d6000803e3d6000fd5b505050506040513d601f19601f820116820180604052506117659190810190612c12565b6117a4576040517f08c379a000000000000000000000000000000000000000000000000000000000815260040161179b906136e3565b60405180910390fd5b6117ac612666565b60405180604001604052808381526020013373ffffffffffffffffffffffffffffffffffffffff168152509050601481908060018154018082558091505090600182039060005260206000209060020201600090919290919091506000820151816000015560208201518160010160006101000a81548173ffffffffffffffffffffffffffffffffffffffff021916908373ffffffffffffffffffffffffffffffffffffffff16021790555050505080601560008481526020019081526020016000206000820151816000015560208201518160010160006101000a81548173ffffffffffffffffffffffffffffffffffffffff021916908373ffffffffffffffffffffffffffffffffffffffff1602179055509050507f01d5f9f5a890e5385b4f1d07d3c8c1f739f82bb433ed461d4551b7af3edc63408282602001516040516118f8929190613538565b60405180910390a150505050565b8273ffffffffffffffffffffffffffffffffffffffff1661192682610c1b565b73ffffffffffffffffffffffffffffffffffffffff161461197c576040517f08c379a000000000000000000000000000000000000000000000000000000000815260040161197390613643565b60405180910390fd5b600073ffffffffffffffffffffffffffffffffffffffff168273ffffffffffffffffffffffffffffffffffffffff1614156119ec576040517f08c379a00000000000000000000000000000000000000000000000000000000081526004016119e390613623565b60405180910390fd5b6119f581612188565b611a3c600460008473ffffffffffffffffffffffffffffffffffffffff1673ffffffffffffffffffffffffffffffffffffffff168152602001908152602001600020612246565b611a83600460008573ffffffffffffffffffffffffffffffffffffffff1673ffffffffffffffffffffffffffffffffffffffff16815260200190815260200160002061225c565b816002600083815260200190815260200160002060006101000a81548173ffffffffffffffffffffffffffffffffffffffff021916908373ffffffffffffffffffffffffffffffffffffffff160217905550808273ffffffffffffffffffffffffffffffffffffffff168473ffffffffffffffffffffffffffffffffffffffff167fddf252ad1be2c89b69c2b068fc378daa952ba7f163c4a11628f55a4df523b3ef60405160405180910390a4505050565b6000611b8d6001600660008673ffffffffffffffffffffffffffffffffffffffff1673ffffffffffffffffffffffffffffffffffffffff1681526020019081526020016000208054905061227f90919063ffffffff16565b9050600060076000848152602001908152602001600020549050818114611c7a576000600660008673ffffffffffffffffffffffffffffffffffffffff1673ffffffffffffffffffffffffffffffffffffffff1681526020019081526020016000208381548110611bfa57fe5b9060005260206000200154905080600660008773ffffffffffffffffffffffffffffffffffffffff1673ffffffffffffffffffffffffffffffffffffffff1681526020019081526020016000208381548110611c5257fe5b9060005260206000200181905550816007600083815260200190815260200160002081905550505b600660008573ffffffffffffffffffffffffffffffffffffffff1673ffffffffffffffffffffffffffffffffffffffff168152602001908152602001600020805480919060019003611ccc9190612699565b5050505050565b600660008373ffffffffffffffffffffffffffffffffffffffff1673ffffffffffffffffffffffffffffffffffffffff168152602001908152602001600020805490506007600083815260200190815260200160002081905550600660008373ffffffffffffffffffffffffffffffffffffffff1673ffffffffffffffffffffffffffffffffffffffff1681526020019081526020016000208190806001815401808255809150509060018203906000526020600020016000909192909190915055505050565b611da3816115dd565b80611dda5750600073ffffffffffffffffffffffffffffffffffffffff168273ffffffffffffffffffffffffffffffffffffffff16145b15611e1a576040517f08c379a0000000000000000000000000000000000000000000000000000000008152600401611e1190613683565b60405180910390fd5b611e61600460008473ffffffffffffffffffffffffffffffffffffffff1673ffffffffffffffffffffffffffffffffffffffff168152602001908152602001600020612246565b816002600083815260200190815260200160002060006101000a81548173ffffffffffffffffffffffffffffffffffffffff021916908373ffffffffffffffffffffffffffffffffffffffff160217905550808273ffffffffffffffffffffffffffffffffffffffff16600073ffffffffffffffffffffffffffffffffffffffff167fddf252ad1be2c89b69c2b068fc378daa952ba7f163c4a11628f55a4df523b3ef60405160405180910390a45050565b6008805490506009600083815260200190815260200160002081905550600881908060018154018082558091505090600182039060005260206000200160009091929091909150555050565b60606000821415611fa7576040518060400160405280600181526020017f30000000000000000000000000000000000000000000000000000000000000008152509050612087565b600082905060005b60008214611fd1578080600101915050600a8281611fc957fe5b049150611faf565b6060816040519080825280601f01601f1916602001820160405280156120065781602001600182028038833980820191505090505b50905060006001830390505b6000861461207f57600a868161202457fe5b0660300160f81b8282806001900393508151811061203e57fe5b60200101907effffffffffffffffffffffffffffffffffffffffffffffffffffffffffffff1916908160001a905350600a868161207757fe5b049550612012565b819450505050505b919050565b60606120c883836040518060200160405280600081525060405180602001604052806000815250604051806020016040528060008152506122c9565b905092915050565b60008060007fc5d2460186f7233c927e7db2dcc703c0e500b653ca82273b7bfad8045d85a47060001b9050833f915080821415801561211257506000801b8214155b92505050919050565b60008260000151600001518360000151602001518460200151600001518560200151602001518660400151600001518760400151602001518760405160200161216a979695949392919061341a565b60405160208183030381529060405280519060200120905092915050565b600073ffffffffffffffffffffffffffffffffffffffff166003600083815260200190815260200160002060009054906101000a900473ffffffffffffffffffffffffffffffffffffffff1673ffffffffffffffffffffffffffffffffffffffff16146122435760006003600083815260200190815260200160002060006101000a81548173ffffffffffffffffffffffffffffffffffffffff021916908373ffffffffffffffffffffffffffffffffffffffff1602179055505b50565b6001816000016000828254019250508190555050565b6122746001826000015461227f90919063ffffffff16565b816000018190555050565b60006122c183836040518060400160405280601e81526020017f536166654d6174683a207375627472616374696f6e206f766572666c6f77000081525061258b565b905092915050565b6060808690506060869050606086905060608690506060869050606081518351855187518951010101016040519080825280601f01601f1916602001820160405280156123255781602001600182028038833980820191505090505b509050606081905060008090506000809050600090505b88518110156123aa5788818151811061235157fe5b602001015160f81c60f81b83838060010194508151811061236e57fe5b60200101907effffffffffffffffffffffffffffffffffffffffffffffffffffffffffffff1916908160001a905350808060010191505061233c565b600090505b875181101561241d578781815181106123c457fe5b602001015160f81c60f81b8383806001019450815181106123e157fe5b60200101907effffffffffffffffffffffffffffffffffffffffffffffffffffffffffffff1916908160001a90535080806001019150506123af565b600090505b86518110156124905786818151811061243757fe5b602001015160f81c60f81b83838060010194508151811061245457fe5b60200101907effffffffffffffffffffffffffffffffffffffffffffffffffffffffffffff1916908160001a9053508080600101915050612422565b600090505b8551811015612503578581815181106124aa57fe5b602001015160f81c60f81b8383806001019450815181106124c757fe5b60200101907effffffffffffffffffffffffffffffffffffffffffffffffffffffffffffff1916908160001a9053508080600101915050612495565b600090505b84518110156125765784818151811061251d57fe5b602001015160f81c60f81b83838060010194508151811061253a57fe5b60200101907effffffffffffffffffffffffffffffffffffffffffffffffffffffffffffff1916908160001a9053508080600101915050612508565b82995050505050505050505095945050505050565b60008383111582906125d3576040517f08c379a00000000000000000000000000000000000000000000000000000000081526004016125ca9190613561565b60405180910390fd5b5060008385039050809150509392505050565b828054600181600116156101000203166002900490600052602060002090601f016020900481019282601f1061262757805160ff1916838001178555612655565b82800160010185558215612655579182015b82811115612654578251825591602001919060010190612639565b5b50905061266291906126c5565b5090565b604051806040016040528060008019168152602001600073ffffffffffffffffffffffffffffffffffffffff1681525090565b8154818355818111156126c0578183600052602060002091820191016126bf91906126c5565b5b505050565b6126e791905b808211156126e35760008160009055506001016126cb565b5090565b90565b6000813590506126f9816139c0565b92915050565b600082601f83011261271057600080fd5b600261272361271e82613776565b613749565b9150818385602084028201111561273957600080fd5b60005b83811015612769578161274f88826129f1565b84526020840193506020830192505060018101905061273c565b5050505092915050565b600082601f83011261278457600080fd5b600261279761279282613798565b613749565b915081838560208402820111156127ad57600080fd5b60005b838110156127dd57816127c388826129f1565b8452602084019350602083019250506001810190506127b0565b5050505092915050565b6000813590506127f6816139d7565b92915050565b60008151905061280b816139d7565b92915050565b600081359050612820816139ee565b92915050565b60008135905061283581613a05565b92915050565b60008151905061284a81613a05565b92915050565b600082601f83011261286157600080fd5b813561287461286f826137ba565b613749565b9150808252602083016020830185838301111561289057600080fd5b61289b838284613963565b50505092915050565b600082601f8301126128b557600080fd5b81356128c86128c3826137e6565b613749565b915080825260208301602083018583830111156128e457600080fd5b6128ef838284613963565b50505092915050565b60006040828403121561290a57600080fd5b6129146040613749565b90506000612924848285016129f1565b6000830152506020612938848285016129f1565b60208301525092915050565b60006080828403121561295657600080fd5b6129606040613749565b90506000612970848285016126ff565b6000830152506040612984848285016126ff565b60208301525092915050565b600061010082840312156129a357600080fd5b6129ad6060613749565b905060006129bd848285016128f8565b60008301525060406129d184828501612944565b60208301525060c06129e5848285016128f8565b60408301525092915050565b600081359050612a0081613a1c565b92915050565b600060208284031215612a1857600080fd5b6000612a26848285016126ea565b91505092915050565b60008060408385031215612a4257600080fd5b6000612a50858286016126ea565b9250506020612a61858286016126ea565b9150509250929050565b600080600060608486031215612a8057600080fd5b6000612a8e868287016126ea565b9350506020612a9f868287016126ea565b9250506040612ab0868287016129f1565b9150509250925092565b60008060008060808587031215612ad057600080fd5b6000612ade878288016126ea565b9450506020612aef878288016126ea565b9350506040612b00878288016129f1565b925050606085013567ffffffffffffffff811115612b1d57600080fd5b612b2987828801612850565b91505092959194509250565b60008060408385031215612b4857600080fd5b6000612b56858286016126ea565b9250506020612b67858286016127e7565b9150509250929050565b60008060408385031215612b8457600080fd5b6000612b92858286016126ea565b9250506020612ba3858286016129f1565b9150509250929050565b6000806000806101808587031215612bc457600080fd5b6000612bd2878288016126ea565b9450506020612be3878288016129f1565b9350506040612bf487828801612990565b925050610140612c0687828801612773565b91505092959194509250565b600060208284031215612c2457600080fd5b6000612c32848285016127fc565b91505092915050565b60008060408385031215612c4e57600080fd5b6000612c5c85828601612811565b925050602083013567ffffffffffffffff811115612c7957600080fd5b612c85858286016128a4565b9150509250929050565b600080600060608486031215612ca457600080fd5b6000612cb286828701612811565b935050602084013567ffffffffffffffff811115612ccf57600080fd5b612cdb868287016128a4565b925050604084013567ffffffffffffffff811115612cf857600080fd5b612d0486828701612850565b9150509250925092565b600060208284031215612d2057600080fd5b6000612d2e84828501612826565b91505092915050565b600060208284031215612d4957600080fd5b6000612d578482850161283b565b91505092915050565b600060208284031215612d7257600080fd5b6000612d80848285016129f1565b91505092915050565b6000612d9583836133d6565b60208301905092915050565b6000612dad83836133f4565b60208301905092915050565b612dc28161392d565b82525050565b612dd1816138af565b82525050565b612de081613831565b612dea8184613877565b9250612df58261381c565b8060005b83811015612e26578151612e0d8782612d89565b9650612e188361385f565b925050600181019050612df9565b505050505050565b612e3781613831565b612e418184613882565b9250612e4c8261381c565b8060005b83811015612e7d578151612e648782612da1565b9650612e6f8361385f565b925050600181019050612e50565b505050505050565b612e8e81613826565b612e98818461386c565b9250612ea382613812565b8060005b83811015612ed4578151612ebb8782612d89565b9650612ec683613852565b925050600181019050612ea7565b505050505050565b612ee581613826565b612eef8184613882565b9250612efa82613812565b8060005b83811015612f2b578151612f128782612da1565b9650612f1d83613852565b925050600181019050612efe565b505050505050565b612f3c816138c1565b82525050565b612f4b816138cd565b82525050565b6000612f5c8261383c565b612f66818561388d565b9350612f76818560208601613972565b612f7f816139af565b840191505092915050565b6000612f9582613847565b612f9f818561389e565b9350612faf818560208601613972565b612fb8816139af565b840191505092915050565b6000612fd060398361389e565b91507f73656e646572206d757374206f776e20636f6e7472616374206f72206170707260008301527f6f76616c20666f7220616c6c206d7573742062652074727565000000000000006020830152604082019050919050565b6000613036600e8361389e565b91507f496e76616c69642043616c6c65720000000000000000000000000000000000006000830152602082019050919050565b600061307660148361389e565b91507f546f6b656e20646f6573206e6f742065786973740000000000000000000000006000830152602082019050919050565b60006130b660198361389e565b91507f696e76616c6964206e6577206f776e65722061646472657373000000000000006000830152602082019050919050565b60006130f660238361389e565b91507f526563697069656e7420697320616c7265616479206f776e6572206f6620746f60008301527f6b656e00000000000000000000000000000000000000000000000000000000006020830152604082019050919050565b600061315c600f8361389e565b91507f696e76616c6964206164647265737300000000000000000000000000000000006000830152602082019050919050565b600061319c601b8361389e565b91507f66726f6d2061646472657373206d757374206f776e20746f6b656e00000000006000830152602082019050919050565b60006131dc60168361389e565b91507f436f6e7472616374206973206e6f7420706175736564000000000000000000006000830152602082019050919050565b600061321c60378361389e565b91507f5478526576657274202d20746f6b656e496420616c726561647920657869737460008301527f73206f72206164647265737320697320696e76616c69640000000000000000006020830152604082019050919050565b600061328260128361389e565b91507f436f6e74726163742069732070617573656400000000000000000000000000006000830152602082019050919050565b60006132c260188361389e565b91507f556e6971756520736f6c7574696f6e20726571756972656400000000000000006000830152602082019050919050565b600061330260158361389e565b91507f4572726f7220696e20766572696669636174696f6e00000000000000000000006000830152602082019050919050565b60408201600082015161334b60008501826133d6565b50602082015161335e60208501826133d6565b50505050565b60808201600082015161337a6000850182612e85565b50602082015161338d6040850182612e85565b50505050565b610100820160008201516133aa6000850182613335565b5060208201516133bd6040850182613364565b5060408201516133d060c0850182613335565b50505050565b6133df81613923565b82525050565b6133ee81613923565b82525050565b6133fd81613923565b82525050565b61341461340f82613923565b6139a5565b82525050565b6000613426828a613403565b6020820191506134368289613403565b6020820191506134468288612edc565b6040820191506134568287612edc565b6040820191506134668286613403565b6020820191506134768285613403565b6020820191506134868284612e2e565b60408201915081905098975050505050505050565b60006020820190506134b06000830184612dc8565b92915050565b60006020820190506134cb6000830184612db9565b92915050565b60006080820190506134e66000830187612db9565b6134f36020830186612dc8565b61350060408301856133e5565b81810360608301526135128184612f51565b905095945050505050565b60006020820190506135326000830184612f33565b92915050565b600060408201905061354d6000830185612f42565b61355a6020830184612dc8565b9392505050565b6000602082019050818103600083015261357b8184612f8a565b905092915050565b6000602082019050818103600083015261359c81612fc3565b9050919050565b600060208201905081810360008301526135bc81613029565b9050919050565b600060208201905081810360008301526135dc81613069565b9050919050565b600060208201905081810360008301526135fc816130a9565b9050919050565b6000602082019050818103600083015261361c816130e9565b9050919050565b6000602082019050818103600083015261363c8161314f565b9050919050565b6000602082019050818103600083015261365c8161318f565b9050919050565b6000602082019050818103600083015261367c816131cf565b9050919050565b6000602082019050818103600083015261369c8161320f565b9050919050565b600060208201905081810360008301526136bc81613275565b9050919050565b600060208201905081810360008301526136dc816132b5565b9050919050565b600060208201905081810360008301526136fc816132f5565b9050919050565b6000610140820190506137196000830185613393565b613727610100830184612dd7565b9392505050565b600060208201905061374360008301846133e5565b92915050565b6000604051905081810181811067ffffffffffffffff8211171561376c57600080fd5b8060405250919050565b600067ffffffffffffffff82111561378d57600080fd5b602082029050919050565b600067ffffffffffffffff8211156137af57600080fd5b602082029050919050565b600067ffffffffffffffff8211156137d157600080fd5b601f19601f8301169050602081019050919050565b600067ffffffffffffffff8211156137fd57600080fd5b601f19601f8301169050602081019050919050565b6000819050919050565b6000819050919050565b600060029050919050565b600060029050919050565b600081519050919050565b600081519050919050565b6000602082019050919050565b6000602082019050919050565b600081905092915050565b600081905092915050565b600081905092915050565b600082825260208201905092915050565b600082825260208201905092915050565b60006138ba82613903565b9050919050565b60008115159050919050565b6000819050919050565b60007fffffffff0000000000000000000000000000000000000000000000000000000082169050919050565b600073ffffffffffffffffffffffffffffffffffffffff82169050919050565b6000819050919050565b60006139388261393f565b9050919050565b600061394a82613951565b9050919050565b600061395c82613903565b9050919050565b82818337600083830152505050565b60005b83811015613990578082015181840152602081019050613975565b8381111561399f576000848401525b50505050565b6000819050919050565b6000601f19601f8301169050919050565b6139c9816138af565b81146139d457600080fd5b50565b6139e0816138c1565b81146139eb57600080fd5b50565b6139f7816138cd565b8114613a0257600080fd5b50565b613a0e816138d7565b8114613a1957600080fd5b50565b613a2581613923565b8114613a3057600080fd5b5056fea365627a7a72315820e3155ee3b250d3b96e8782556dc64ca687045ce42cb0b56559bd1ee19a36c4786c6578706572696d656e74616cf564736f6c6343000511004068747470733a2f2f73332d75732d776573742d322e616d617a6f6e6177732e636f6d2f756461636974792d626c6f636b636861696e2f63617073746f6e652f",
  "source": "pragma solidity >=0.4.21 <0.6.0;\npragma experimental ABIEncoderV2;\n\nimport \"./ERC721Mintable.sol\";\nimport \"./Verifier.sol\";\n\n// TODO define a contract call to the zokrates generated solidity contract <Verifier> or <renamedVerifier>\n\n// TODO define another contract named SolnSquareVerifier that inherits from your ERC721Mintable class\ncontract SolnSquareVerifier is RealEstateERC721Token {\n\n    Verifier private verifier;\n\n    constructor(address verifierAddr) public {\n        verifier = Verifier(verifierAddr);\n    }\n\n    // TODO define a solutions struct that can hold an tokenId & an address\n    struct Solution {\n        bytes32 index;\n        address ownerAddr;\n    }\n\n    // TODO define an array of the above struct\n    Solution[] private solutions;\n\n    // TODO define a mapping to store unique solutions submitted\n    mapping(bytes32 => Solution) submittedSolutions;\n\n    // TODO Create an event to emit when a solution is added\n    event SolutionAdded(bytes32 tokenId, address from);\n\n    // TODO Create a function to add the solutions to the array and emit the event\n    function addSolution(Verifier.Proof memory proof, uint256[2] memory input) internal {\n        bytes32 key = getKey(proof, input);\n        require(submittedSolutions[key].index == 0, \"Unique solution required\");\n        require(verifier.verifyTx(proof, input), \"Error in verification\");\n        Solution memory newSolution = Solution({index: key, ownerAddr: msg.sender});\n\n        solutions.push(newSolution);\n        submittedSolutions[key] = newSolution;\n\n        emit SolutionAdded(key, newSolution.ownerAddr);\n    }\n\n    // TODO Create a function to mint new NFT only after the solution has been verified\n    //  - make sure the solution is unique (has not been used before)\n    //  - make sure you handle metadata as well as tokenSuplly\n    function NFTmint(address to, uint256 tokenId, Verifier.Proof memory proof, uint256[2] memory input) public {\n        addSolution(proof, input);\n        super.mint(to, tokenId);\n    }\n\n    function getKey(Verifier.Proof memory proof, uint256[2] memory input) internal pure returns (bytes32) {\n        return keccak256(abi.encodePacked(proof.a.X, proof.a.Y, proof.b.X, proof.b.Y, proof.c.X, proof.c.Y, input));\n    }\n}\n",
  "sourcePath": "/Users/mclark/repo/Blockchain-Capstone/eth-contracts/contracts/SolnSquareVerifier.sol",
  "compiler": {
    "name": "solc",
    "version": "0.5.17+commit.d19bba13.Emscripten.clang"
  },
  "schemaVersion": "3.0.9",
  "updatedAt": "2022-06-24T20:09:35.340Z",
  "devdoc": {
    "methods": {
      "isApprovedForAll(address,address)": {
        "details": "Tells whether an operator is approved by a given owner",
        "params": {
          "operator": "operator address which you want to query the approval of",
          "owner": "owner address which you want to query the approval of"
        },
        "return": "bool whether the given operator is approved by the given owner"
      },
      "setApprovalForAll(address,bool)": {
        "details": "Sets or unsets the approval of a given operator An operator is allowed to transfer all tokens of the sender on their behalf",
        "params": {
          "approved": "representing the status of the approval to be set",
          "to": "operator address to set the approval"
        }
      },
      "supportsInterface(bytes4)": {
        "details": "implement supportsInterface(bytes4) using a lookup table"
      },
      "tokenByIndex(uint256)": {
        "details": "Gets the token ID at a given index of all the tokens in this contract Reverts if the index is greater or equal to the total number of tokens",
        "params": {
          "index": "uint256 representing the index to be accessed of the tokens list"
        },
        "return": "uint256 token ID at the given index of the tokens list"
      },
      "tokenOfOwnerByIndex(address,uint256)": {
        "details": "Gets the token ID at a given index of the tokens list of the requested owner",
        "params": {
          "index": "uint256 representing the index to be accessed of the requested tokens list",
          "owner": "address owning the tokens list to be accessed"
        },
        "return": "uint256 token ID at the given index of the tokens list owned by the requested address"
      },
      "totalSupply()": {
        "details": "Gets the total amount of tokens stored by the contract",
        "return": "uint256 representing the total amount of tokens"
      }
    }
  },
  "userdoc": {
    "methods": {}
  }
}