{
  "contractName": "SquareVerifier",
  "abi": [
    {
      "constant": true,
      "inputs": [
        {
          "components": [
            {
              "components": [
                {
                  "internalType": "uint256",
                  "name": "X",
                  "type": "uint256"
                },
                {
                  "internalType": "uint256",
                  "name": "Y",
                  "type": "uint256"
                }
              ],
              "internalType": "struct Pairing.G1Point",
              "name": "a",
              "type": "tuple"
            },
            {
              "components": [
                {
                  "internalType": "uint256[2]",
                  "name": "X",
                  "type": "uint256[2]"
                },
                {
                  "internalType": "uint256[2]",
                  "name": "Y",
                  "type": "uint256[2]"
                }
              ],
              "internalType": "struct Pairing.G2Point",
              "name": "b",
              "type": "tuple"
            },
            {
              "components": [
                {
                  "internalType": "uint256",
                  "name": "X",
                  "type": "uint256"
                },
                {
                  "internalType": "uint256",
                  "name": "Y",
                  "type": "uint256"
                }
              ],
              "internalType": "struct Pairing.G1Point",
              "name": "c",
              "type": "tuple"
            }
          ],
          "internalType": "struct Verifier.Proof",
          "name": "proof",
          "type": "tuple"
        },
        {
          "internalType": "uint256[2]",
          "name": "input",
          "type": "uint256[2]"
        }
      ],
      "name": "verifyTx",
      "outputs": [
        {
          "internalType": "bool",
          "name": "r",
          "type": "bool"
        }
      ],
      "payable": false,
      "stateMutability": "view",
      "type": "function"
    }
  ],
  "bytecode": "0x608060405234801561001057600080fd5b506110c1806100206000396000f3fe608060405234801561001057600080fd5b506004361061002b5760003560e01c806343cd76fc14610030575b600080fd5b61004a60048036036100459190810190610f78565b610060565b6040516100579190610fc5565b60405180910390f35b6000606060026040519080825280602002602001820160405280156100945781602001602082028038833980820191505090505b50905060008090505b60028110156100dc578381600281106100b257fe5b60200201518282815181106100c357fe5b602002602001018181525050808060010191505061009d565b5060006100e98286610105565b14156100f95760019150506100ff565b60009150505b92915050565b6000807f30644e72e131a029b85045b68181585d2833e84879b9709143e1f593f00000019050610133610c59565b61013b610277565b905080608001515160018651011461015257600080fd5b61015a610ca0565b6040518060400160405280600081526020016000815250905060008090505b86518110156101f0578387828151811061018f57fe5b6020026020010151106101a157600080fd5b6101e1826101dc856080015160018501815181106101bb57fe5b60200260200101518a85815181106101cf57fe5b60200260200101516106c5565b610757565b91508080600101915050610179565b5061021381836080015160008151811061020657fe5b6020026020010151610757565b90506102598560000151866020015161022b84610808565b856040015161023d8a60400151610808565b876060015161024f8960000151610808565b89602001516108a2565b6102695760019350505050610271565b600093505050505b92915050565b61027f610c59565b60405180604001604052807f2502554f79b63a663caf9ea428cfdc5f94a335b0eafd91ecca631caea8568a5d81526020017f0f2ea6d7caade898c907dd506df61e9beff6178ceba3f9560655e08fc7d22a338152508160000181905250604051806040016040528060405180604001604052807f0de86bce4f964c80d23f7bb407ec87edf441c9e70b0d97d996c9db8d81ebda5f81526020017f05718345473fac58d6049e5bd010c7848bc851caece3c624566e1fbf3c57d03e815250815260200160405180604001604052807f2ddf89133b7540710b75a3555652c49df125168a521f7fb1578a8ef8be80c9e881526020017f14e2d11000f448c25cbe47b7012321f32ca0eb24eb17172fddd777ee2afe09e28152508152508160200181905250604051806040016040528060405180604001604052807f0cedceeaacf3138c92ecf3a7d0d1444bf0dbd6b1b9017679be94d51110b98fd581526020017f243f43856a7e476cd8e76562c4b231007d0b907df561a82b91b034afd62a7f2f815250815260200160405180604001604052807f16bc3e95d1a2fd5e00cee1d9b1451b414238b9b5b42d0ea350c03fe88116791781526020017f27544e0a0566449f23972fe46fd9d1b424c4a0db899c341c01972fa864ed832f8152508152508160400181905250604051806040016040528060405180604001604052807f156ab45eb8696cf4c0856ffd89b76c0f0ae9317f73e56edb2340cb26dcb8c50f81526020017f08611b91d2182a159aca70d959a730780c430dee5ca70268b76fc707b10b01e0815250815260200160405180604001604052807f160b132494849e32499c5739138468052caa27aa1b5ea0996683e57dd4f0bdef81526020017f02171f2d7cb9681a770f0603e509aa568a29ecd1929fce48f1cc9bf2a515d3958152508152508160600181905250600360405190808252806020026020018201604052801561056657816020015b610553610cba565b81526020019060019003908161054b5790505b50816080018190525060405180604001604052807f15c615cbe444d24470b0fd10c210de258308073bcdc95293f713fe086f9bbeb181526020017f2521e248b1f6aca104efcb0db7b45448033f306a8035db93568292bf758bf10e81525081608001516000815181106105d557fe5b602002602001018190525060405180604001604052807f09f4312441b6bf8a1ee9ccd846e2d8d58e23e21a485867d8efeaf10d25af13f081526020017f185668554bdb2c0b06c2db2a401c1edf5d6213da180728076b65d1159e1d23a9815250816080015160018151811061064657fe5b602002602001018190525060405180604001604052807f0d09fd8820529b150099fd6b1205991b9802890c8cbcda915b71c18bf35e016a81526020017f1fc7c5c5a8da145e1fd311d2b6b5003d929c7547321c542bcb95813c3c0876c781525081608001516002815181106106b757fe5b602002602001018190525090565b6106cd610ca0565b6106d5610cd4565b8360000151816000600381106106e757fe5b60200201818152505083602001518160016003811061070257fe5b602002018181525050828160026003811061071957fe5b602002018181525050600060608360808460076107d05a03fa9050806000811461074257610744565bfe5b508061074f57600080fd5b505092915050565b61075f610ca0565b610767610cf6565b83600001518160006004811061077957fe5b60200201818152505083602001518160016004811061079457fe5b6020020181815250508260000151816002600481106107af57fe5b6020020181815250508260200151816003600481106107ca57fe5b602002018181525050600060608360c08460066107d05a03fa905080600081146107f3576107f5565bfe5b508061080057600080fd5b505092915050565b610810610ca0565b60007f30644e72e131a029b85045b68181585d97816a916871ca8d3c208c16d87cfd4790506000836000015114801561084d575060008360200151145b1561087157604051806040016040528060008152602001600081525091505061089d565b6040518060400160405280846000015181526020018285602001518161089357fe5b0683038152509150505b919050565b6000606060046040519080825280602002602001820160405280156108e157816020015b6108ce610cba565b8152602001906001900390816108c65790505b5090506060600460405190808252806020026020018201604052801561092157816020015b61090e610d18565b8152602001906001900390816109065790505b5090508a8260008151811061093257fe5b6020026020010181905250888260018151811061094b57fe5b6020026020010181905250868260028151811061096457fe5b6020026020010181905250848260038151811061097d57fe5b6020026020010181905250898160008151811061099657fe5b602002602001018190525087816001815181106109af57fe5b602002602001018190525085816002815181106109c857fe5b602002602001018190525083816003815181106109e157fe5b60200260200101819052506109f68282610a06565b9250505098975050505050505050565b60008151835114610a1657600080fd5b6000835190506000600682029050606081604051908082528060200260200182016040528015610a555781602001602082028038833980820191505090505b50905060008090505b83811015610bfb57868181518110610a7257fe5b602002602001015160000151826000600684020181518110610a9057fe5b602002602001018181525050868181518110610aa857fe5b602002602001015160200151826001600684020181518110610ac657fe5b602002602001018181525050858181518110610ade57fe5b602002602001015160000151600160028110610af657fe5b6020020151826002600684020181518110610b0d57fe5b602002602001018181525050858181518110610b2557fe5b602002602001015160000151600060028110610b3d57fe5b6020020151826003600684020181518110610b5457fe5b602002602001018181525050858181518110610b6c57fe5b602002602001015160200151600160028110610b8457fe5b6020020151826004600684020181518110610b9b57fe5b602002602001018181525050858181518110610bb357fe5b602002602001015160200151600060028110610bcb57fe5b6020020151826005600684020181518110610be257fe5b6020026020010181815250508080600101915050610a5e565b50610c04610d3e565b6000602082602086026020860160086107d05a03fa90508060008114610c2957610c2b565bfe5b5080610c3657600080fd5b600082600060018110610c4557fe5b602002015114159550505050505092915050565b6040518060a00160405280610c6c610cba565b8152602001610c79610d18565b8152602001610c86610d18565b8152602001610c93610d18565b8152602001606081525090565b604051806040016040528060008152602001600081525090565b604051806040016040528060008152602001600081525090565b6040518060600160405280600390602082028038833980820191505090505090565b6040518060800160405280600490602082028038833980820191505090505090565b6040518060400160405280610d2b610d60565b8152602001610d38610d60565b81525090565b6040518060200160405280600190602082028038833980820191505090505090565b6040518060400160405280600290602082028038833980820191505090505090565b600082601f830112610d9357600080fd5b6002610da6610da18261100d565b610fe0565b91508183856020840282011115610dbc57600080fd5b60005b83811015610dec5781610dd28882610f63565b845260208401935060208301925050600181019050610dbf565b5050505092915050565b600082601f830112610e0757600080fd5b6002610e1a610e158261102f565b610fe0565b91508183856020840282011115610e3057600080fd5b60005b83811015610e605781610e468882610f63565b845260208401935060208301925050600181019050610e33565b5050505092915050565b600060408284031215610e7c57600080fd5b610e866040610fe0565b90506000610e9684828501610f63565b6000830152506020610eaa84828501610f63565b60208301525092915050565b600060808284031215610ec857600080fd5b610ed26040610fe0565b90506000610ee284828501610d82565b6000830152506040610ef684828501610d82565b60208301525092915050565b60006101008284031215610f1557600080fd5b610f1f6060610fe0565b90506000610f2f84828501610e6a565b6000830152506040610f4384828501610eb6565b60208301525060c0610f5784828501610e6a565b60408301525092915050565b600081359050610f7281611067565b92915050565b6000806101408385031215610f8c57600080fd5b6000610f9a85828601610f02565b925050610100610fac85828601610df6565b9150509250929050565b610fbf81611051565b82525050565b6000602082019050610fda6000830184610fb6565b92915050565b6000604051905081810181811067ffffffffffffffff8211171561100357600080fd5b8060405250919050565b600067ffffffffffffffff82111561102457600080fd5b602082029050919050565b600067ffffffffffffffff82111561104657600080fd5b602082029050919050565b60008115159050919050565b6000819050919050565b6110708161105d565b811461107b57600080fd5b5056fea365627a7a72315820c036f01a6ac965876cea77c3aed27299220dd91320566ff4ad0a334b0b5790866c6578706572696d656e74616cf564736f6c63430005110040",
  "source": "pragma solidity >=0.4.21 <0.6.0;\npragma experimental ABIEncoderV2;\n\nimport \"./ERC721Mintable.sol\";\nimport \"./Verifier.sol\";\n\n// TODO define a contract call to the zokrates generated solidity contract <Verifier> or <renamedVerifier>\ncontract SquareVerifier is Verifier {}\n\n// TODO define another contract named SolnSquareVerifier that inherits from your ERC721Mintable class\ncontract SolnSquareVerifier is RealEstateERC721Token {\n\n    SquareVerifier private verifier;\n\n    constructor(address verifierAddress) public {\n        verifier = SquareVerifier(verifierAddress);\n    }\n\n    // TODO define a solutions struct that can hold an tokenId & an address\n    struct Solution {\n        bool minted;\n        uint256 tokenId;\n        address from;\n        uint256[2] input;\n    }\n\n    // TODO define an array of the above struct\n    mapping(bytes32 => Solution) solutions;\n\n    // TODO define a mapping to store unique solutions submitted\n    mapping(uint256 => bytes32) private submittedSolutions;\n\n    // TODO Create an event to emit when a solution is added\n    event SolutionAdded(uint256 tokenId, address from);\n\n    // TODO Create a function to add the solutions to the array and emit the event\n    function addSolution(uint[2] memory a,\n        uint[2][2] memory b,\n        uint[2] memory c,\n        uint[2] memory input,\n        address source,\n        uint256 tokenId) public {\n//        require(verifier.verifyTx(a, b, c, input), \"Unable to verify Solution\");\n\n        // Create a unique key for tracking solutions\n        bytes32 solutionKey = keccak256(abi.encodePacked(a, b, c, input));\n\n        // Ensure the solution does not already exist\n        require(solutions[solutionKey].tokenId == 0, \"Solution already exists\");\n\n        solutions[solutionKey].minted = false;\n        solutions[solutionKey].tokenId = tokenId;\n        solutions[solutionKey].from = source;\n        solutions[solutionKey].input = input;\n        submittedSolutions[tokenId] = solutionKey;\n\n        emit SolutionAdded(tokenId, source);\n    }\n\n    // TODO Create a function to mint new NFT only after the solution has been verified\n    //  - make sure the solution is unique (has not been used before)\n    //  - make sure you handle metadata as well as tokenSuplly\n    function mint(address to, uint256 tokenId) public returns (bool) {\n        bytes32 key = submittedSolutions[tokenId];\n\n        // Ensure the key really exists\n        require(key != bytes32(0), \"The solution with the provided tokenId was not found\");\n\n        // Ensure the token has not been minted before\n        require(!solutions[key].minted, \"The Solution has already been minted\");\n\n        // Esnure the owner is the one minting the Solution\n        address owner = solutions[submittedSolutions[tokenId]].from;\n        require(owner == to, \"The destination address does not match the source address\");\n\n        solutions[key].minted = true;\n        return true;\n    }\n}\n\n\n\n\n\n\n\n\n\n\n\n\n\n\n\n\n\n\n\n\n\n\n\n\n\n\n\n",
  "sourcePath": "/Users/mclark/repo/Blockchain-Capstone/eth-contracts/contracts/SolnSquareVerifier.sol",
  "compiler": {
    "name": "solc",
    "version": "0.5.17+commit.d19bba13.Emscripten.clang"
  },
  "schemaVersion": "3.0.9",
  "updatedAt": "2022-06-24T17:44:02.895Z",
  "devdoc": {
    "methods": {}
  },
  "userdoc": {
    "methods": {}
  }
}